{
  "_format": "hh-sol-artifact-1",
  "contractName": "Marketplace",
  "sourceName": "contracts/Marketplace.sol",
  "abi": [
    {
      "anonymous": false,
      "inputs": [
        {
          "indexed": false,
          "internalType": "uint256",
          "name": "itemId",
          "type": "uint256"
        },
        {
          "indexed": false,
          "internalType": "address",
          "name": "seller",
          "type": "address"
        },
        {
          "indexed": false,
          "internalType": "uint256",
          "name": "price",
          "type": "uint256"
        }
      ],
      "name": "ItemListed",
      "type": "event"
    },
    {
      "anonymous": false,
      "inputs": [
        {
          "indexed": false,
          "internalType": "uint256",
          "name": "itemId",
          "type": "uint256"
        },
        {
          "indexed": false,
          "internalType": "address",
          "name": "buyer",
          "type": "address"
        }
      ],
      "name": "ItemSold",
      "type": "event"
    },
    {
      "anonymous": false,
      "inputs": [
        {
          "indexed": false,
          "internalType": "uint256",
          "name": "itemId",
          "type": "uint256"
        },
        {
          "indexed": false,
          "internalType": "address",
          "name": "reviewer",
          "type": "address"
        }
      ],
      "name": "ReviewAdded",
      "type": "event"
    },
    {
      "inputs": [
        {
          "internalType": "uint256",
          "name": "_itemId",
          "type": "uint256"
        },
        {
          "internalType": "uint256",
          "name": "_rating",
          "type": "uint256"
        },
        {
          "internalType": "string",
          "name": "_comment",
          "type": "string"
        }
      ],
      "name": "addReview",
      "outputs": [],
      "stateMutability": "nonpayable",
      "type": "function"
    },
    {
      "inputs": [
        {
          "internalType": "uint256",
          "name": "_itemId",
          "type": "uint256"
        }
      ],
      "name": "getReviews",
      "outputs": [
        {
          "components": [
            {
              "internalType": "address",
              "name": "reviewer",
              "type": "address"
            },
            {
              "internalType": "uint256",
              "name": "rating",
              "type": "uint256"
            },
            {
              "internalType": "string",
              "name": "comment",
              "type": "string"
            }
          ],
          "internalType": "struct Marketplace.Review[]",
          "name": "",
          "type": "tuple[]"
        }
      ],
      "stateMutability": "view",
      "type": "function"
    },
    {
      "inputs": [],
      "name": "itemCount",
      "outputs": [
        {
          "internalType": "uint256",
          "name": "",
          "type": "uint256"
        }
      ],
      "stateMutability": "view",
      "type": "function"
    },
    {
      "inputs": [
        {
          "internalType": "uint256",
          "name": "",
          "type": "uint256"
        },
        {
          "internalType": "uint256",
          "name": "",
          "type": "uint256"
        }
      ],
      "name": "itemReviews",
      "outputs": [
        {
          "internalType": "address",
          "name": "reviewer",
          "type": "address"
        },
        {
          "internalType": "uint256",
          "name": "rating",
          "type": "uint256"
        },
        {
          "internalType": "string",
          "name": "comment",
          "type": "string"
        }
      ],
      "stateMutability": "view",
      "type": "function"
    },
    {
      "inputs": [
        {
          "internalType": "uint256",
          "name": "",
          "type": "uint256"
        }
      ],
      "name": "items",
      "outputs": [
        {
          "internalType": "uint256",
          "name": "itemId",
          "type": "uint256"
        },
        {
          "internalType": "address payable",
          "name": "seller",
          "type": "address"
        },
        {
          "internalType": "string",
          "name": "name",
          "type": "string"
        },
        {
          "internalType": "string",
          "name": "description",
          "type": "string"
        },
        {
          "internalType": "uint256",
          "name": "price",
          "type": "uint256"
        },
        {
          "internalType": "bool",
          "name": "sold",
          "type": "bool"
        }
      ],
      "stateMutability": "view",
      "type": "function"
    },
    {
      "inputs": [
        {
          "internalType": "string",
          "name": "_name",
          "type": "string"
        },
        {
          "internalType": "string",
          "name": "_description",
          "type": "string"
        },
        {
          "internalType": "uint256",
          "name": "_price",
          "type": "uint256"
        }
      ],
      "name": "listItem",
      "outputs": [],
      "stateMutability": "nonpayable",
      "type": "function"
    },
    {
      "inputs": [
        {
          "internalType": "uint256",
          "name": "_itemId",
          "type": "uint256"
        }
      ],
      "name": "purchaseItem",
      "outputs": [],
      "stateMutability": "payable",
      "type": "function"
    }
  ],
  "bytecode": "0x608060405234801561001057600080fd5b5061152a806100206000396000f3fe6080604052600436106100705760003560e01c806374ca64fb1161004e57806374ca64fb146100f25780639d4a225514610131578063bfb231d21461016e578063d38ea5bf146101b057610070565b80630562021c146100755780633e9e27aa1461009e5780636bfb0d01146100c7575b600080fd5b34801561008157600080fd5b5061009c60048036038101906100979190610c47565b6101cc565b005b3480156100aa57600080fd5b506100c560048036038101906100c09190610d2b565b61037d565b005b3480156100d357600080fd5b506100dc61053c565b6040516100e99190611177565b60405180910390f35b3480156100fe57600080fd5b5061011960048036038101906101149190610cef565b610542565b60405161012893929190611077565b60405180910390f35b34801561013d57600080fd5b5061015860048036038101906101539190610cc6565b610631565b60405161016591906110b5565b60405180910390f35b34801561017a57600080fd5b5061019560048036038101906101909190610cc6565b6107e8565b6040516101a7969594939291906111bb565b60405180910390f35b6101ca60048036038101906101c59190610cc6565b610961565b005b6000811161020f576040517f08c379a0000000000000000000000000000000000000000000000000000000008152600401610206906110d7565b60405180910390fd5b60026000815480929190610222906113f6565b91905055506040518060c0016040528060025481526020013373ffffffffffffffffffffffffffffffffffffffff1681526020018481526020018381526020018281526020016000151581525060008060025481526020019081526020016000206000820151816000015560208201518160010160006101000a81548173ffffffffffffffffffffffffffffffffffffffff021916908373ffffffffffffffffffffffffffffffffffffffff16021790555060408201518160020190805190602001906102f0929190610b27565b50606082015181600301908051906020019061030d929190610b27565b506080820151816004015560a08201518160050160006101000a81548160ff0219169083151502179055509050507fc93edc6ee14cd6c0c2842099adfa8953b237dbdad304ba28e96dce8a7f2a828c60025433836040516103709392919061122a565b60405180910390a1505050565b8260008111801561039057506002548111155b6103cf576040517f08c379a00000000000000000000000000000000000000000000000000000000081526004016103c690611137565b60405180910390fd5b600183101580156103e1575060058311155b610420576040517f08c379a000000000000000000000000000000000000000000000000000000000815260040161041790611117565b60405180910390fd5b6001600085815260200190815260200160002060405180606001604052803373ffffffffffffffffffffffffffffffffffffffff16815260200185815260200184815250908060018154018082558091505060019003906000526020600020906003020160009091909190915060008201518160000160006101000a81548173ffffffffffffffffffffffffffffffffffffffff021916908373ffffffffffffffffffffffffffffffffffffffff1602179055506020820151816001015560408201518160020190805190602001906104fa929190610b27565b5050507f147d2c343f054e85e3a52f84240e7454f6361913e64b66f8abc756ffc455683d843360405161052e929190611192565b60405180910390a150505050565b60025481565b6001602052816000526040600020818154811061055e57600080fd5b9060005260206000209060030201600091509150508060000160009054906101000a900473ffffffffffffffffffffffffffffffffffffffff16908060010154908060020180546105ae906113c4565b80601f01602080910402602001604051908101604052809291908181526020018280546105da906113c4565b80156106275780601f106105fc57610100808354040283529160200191610627565b820191906000526020600020905b81548152906001019060200180831161060a57829003601f168201915b5050505050905083565b60608160008111801561064657506002548111155b610685576040517f08c379a000000000000000000000000000000000000000000000000000000000815260040161067c90611137565b60405180910390fd5b60016000848152602001908152602001600020805480602002602001604051908101604052809291908181526020016000905b828210156107dc57838290600052602060002090600302016040518060600160405290816000820160009054906101000a900473ffffffffffffffffffffffffffffffffffffffff1673ffffffffffffffffffffffffffffffffffffffff1673ffffffffffffffffffffffffffffffffffffffff1681526020016001820154815260200160028201805461074b906113c4565b80601f0160208091040260200160405190810160405280929190818152602001828054610777906113c4565b80156107c45780601f10610799576101008083540402835291602001916107c4565b820191906000526020600020905b8154815290600101906020018083116107a757829003601f168201915b505050505081525050815260200190600101906106b8565b50505050915050919050565b60006020528060005260406000206000915090508060000154908060010160009054906101000a900473ffffffffffffffffffffffffffffffffffffffff1690806002018054610837906113c4565b80601f0160208091040260200160405190810160405280929190818152602001828054610863906113c4565b80156108b05780601f10610885576101008083540402835291602001916108b0565b820191906000526020600020905b81548152906001019060200180831161089357829003601f168201915b5050505050908060030180546108c5906113c4565b80601f01602080910402602001604051908101604052809291908181526020018280546108f1906113c4565b801561093e5780601f106109135761010080835404028352916020019161093e565b820191906000526020600020905b81548152906001019060200180831161092157829003601f168201915b5050505050908060040154908060050160009054906101000a900460ff16905086565b8060008111801561097457506002548111155b6109b3576040517f08c379a00000000000000000000000000000000000000000000000000000000081526004016109aa90611137565b60405180910390fd5b6000806000848152602001908152602001600020905080600401543414610a0f576040517f08c379a0000000000000000000000000000000000000000000000000000000008152600401610a06906110f7565b60405180910390fd5b8060050160009054906101000a900460ff1615610a61576040517f08c379a0000000000000000000000000000000000000000000000000000000008152600401610a5890611157565b60405180910390fd5b8060010160009054906101000a900473ffffffffffffffffffffffffffffffffffffffff1673ffffffffffffffffffffffffffffffffffffffff166108fc349081150290604051600060405180830381858888f19350505050158015610acb573d6000803e3d6000fd5b5060018160050160006101000a81548160ff0219169083151502179055507f7de4035ced290be6d7724645d43bad448b5d8cc76743ff4da172c2d8e1caa0f58333604051610b1a929190611192565b60405180910390a1505050565b828054610b33906113c4565b90600052602060002090601f016020900481019282610b555760008555610b9c565b82601f10610b6e57805160ff1916838001178555610b9c565b82800160010185558215610b9c579182015b82811115610b9b578251825591602001919060010190610b80565b5b509050610ba99190610bad565b5090565b5b80821115610bc6576000816000905550600101610bae565b5090565b6000610bdd610bd884611292565b611261565b905082815260208101848484011115610bf557600080fd5b610c00848285611382565b509392505050565b600082601f830112610c1957600080fd5b8135610c29848260208601610bca565b91505092915050565b600081359050610c41816114dd565b92915050565b600080600060608486031215610c5c57600080fd5b600084013567ffffffffffffffff811115610c7657600080fd5b610c8286828701610c08565b935050602084013567ffffffffffffffff811115610c9f57600080fd5b610cab86828701610c08565b9250506040610cbc86828701610c32565b9150509250925092565b600060208284031215610cd857600080fd5b6000610ce684828501610c32565b91505092915050565b60008060408385031215610d0257600080fd5b6000610d1085828601610c32565b9250506020610d2185828601610c32565b9150509250929050565b600080600060608486031215610d4057600080fd5b6000610d4e86828701610c32565b9350506020610d5f86828701610c32565b925050604084013567ffffffffffffffff811115610d7c57600080fd5b610d8886828701610c08565b9150509250925092565b6000610d9e8383611009565b905092915050565b610daf8161133a565b82525050565b610dbe81611328565b82525050565b610dcd81611328565b82525050565b6000610dde826112d2565b610de881856112f5565b935083602082028501610dfa856112c2565b8060005b85811015610e365784840389528151610e178582610d92565b9450610e22836112e8565b925060208a01995050600181019050610dfe565b50829750879550505050505092915050565b610e518161134c565b82525050565b6000610e62826112dd565b610e6c8185611306565b9350610e7c818560208601611391565b610e85816114cc565b840191505092915050565b6000610e9b826112dd565b610ea58185611317565b9350610eb5818560208601611391565b610ebe816114cc565b840191505092915050565b6000610ed6601f83611317565b91507f5072696365206d7573742062652067726561746572207468616e207a65726f006000830152602082019050919050565b6000610f16601483611317565b91507f496e636f72726563742076616c75652073656e740000000000000000000000006000830152602082019050919050565b6000610f56601e83611317565b91507f526174696e67206d757374206265206265747765656e203120616e64203500006000830152602082019050919050565b6000610f96601383611317565b91507f4974656d20646f6573206e6f74206578697374000000000000000000000000006000830152602082019050919050565b6000610fd6601183611317565b91507f4974656d20616c726561647920736f6c640000000000000000000000000000006000830152602082019050919050565b60006060830160008301516110216000860182610db5565b5060208301516110346020860182611059565b506040830151848203604086015261104c8282610e57565b9150508091505092915050565b61106281611378565b82525050565b61107181611378565b82525050565b600060608201905061108c6000830186610dc4565b6110996020830185611068565b81810360408301526110ab8184610e90565b9050949350505050565b600060208201905081810360008301526110cf8184610dd3565b905092915050565b600060208201905081810360008301526110f081610ec9565b9050919050565b6000602082019050818103600083015261111081610f09565b9050919050565b6000602082019050818103600083015261113081610f49565b9050919050565b6000602082019050818103600083015261115081610f89565b9050919050565b6000602082019050818103600083015261117081610fc9565b9050919050565b600060208201905061118c6000830184611068565b92915050565b60006040820190506111a76000830185611068565b6111b46020830184610dc4565b9392505050565b600060c0820190506111d06000830189611068565b6111dd6020830188610da6565b81810360408301526111ef8187610e90565b905081810360608301526112038186610e90565b90506112126080830185611068565b61121f60a0830184610e48565b979650505050505050565b600060608201905061123f6000830186611068565b61124c6020830185610dc4565b6112596040830184611068565b949350505050565b6000604051905081810181811067ffffffffffffffff821117156112885761128761149d565b5b8060405250919050565b600067ffffffffffffffff8211156112ad576112ac61149d565b5b601f19601f8301169050602081019050919050565b6000819050602082019050919050565b600081519050919050565b600081519050919050565b6000602082019050919050565b600082825260208201905092915050565b600082825260208201905092915050565b600082825260208201905092915050565b600061133382611358565b9050919050565b600061134582611358565b9050919050565b60008115159050919050565b600073ffffffffffffffffffffffffffffffffffffffff82169050919050565b6000819050919050565b82818337600083830152505050565b60005b838110156113af578082015181840152602081019050611394565b838111156113be576000848401525b50505050565b600060028204905060018216806113dc57607f821691505b602082108114156113f0576113ef61146e565b5b50919050565b600061140182611378565b91507fffffffffffffffffffffffffffffffffffffffffffffffffffffffffffffffff8214156114345761143361143f565b5b600182019050919050565b7f4e487b7100000000000000000000000000000000000000000000000000000000600052601160045260246000fd5b7f4e487b7100000000000000000000000000000000000000000000000000000000600052602260045260246000fd5b7f4e487b7100000000000000000000000000000000000000000000000000000000600052604160045260246000fd5b6000601f19601f8301169050919050565b6114e681611378565b81146114f157600080fd5b5056fea264697066735822122069558c132a73ef33e8ec1ae16f8654330616d4fc706184f6bf7e73f42b046b6c64736f6c63430008000033",
  "linkReferences": {},
  "deployedLinkReferences": {}
}